{
  "contractName": "MyContract",
  "abi": [
    {
      "inputs": [],
      "name": "admin",
      "outputs": [
        {
          "internalType": "address payable",
          "name": "",
          "type": "address"
        }
      ],
      "stateMutability": "view",
      "type": "function",
      "constant": true
    },
    {
      "inputs": [],
      "name": "balanceWei",
      "outputs": [
        {
          "internalType": "uint256",
          "name": "",
          "type": "uint256"
        }
      ],
      "stateMutability": "view",
      "type": "function",
      "constant": true
    },
    {
      "inputs": [
        {
          "internalType": "uint256",
          "name": "",
          "type": "uint256"
        }
      ],
      "name": "tikets",
      "outputs": [
        {
          "internalType": "address",
          "name": "",
          "type": "address"
        }
      ],
      "stateMutability": "view",
      "type": "function",
      "constant": true
    },
    {
      "inputs": [],
      "name": "transferBalanceToAdmin",
      "outputs": [],
      "stateMutability": "nonpayable",
      "type": "function"
    },
    {
      "inputs": [
        {
          "internalType": "uint256",
          "name": "tiketIndex",
          "type": "uint256"
        }
      ],
      "name": "buyTiket",
      "outputs": [
        {
          "internalType": "bool",
          "name": "",
          "type": "bool"
        }
      ],
      "stateMutability": "payable",
      "type": "function",
      "payable": true
    },
    {
      "inputs": [],
      "name": "getTikets",
      "outputs": [
        {
          "internalType": "address[16]",
          "name": "",
          "type": "address[16]"
        }
      ],
      "stateMutability": "view",
      "type": "function",
      "constant": true
    },
    {
      "inputs": [
        {
          "internalType": "uint256",
          "name": "tiketIndex",
          "type": "uint256"
        }
      ],
      "name": "isTicketAvailable",
      "outputs": [
        {
          "internalType": "bool",
          "name": "",
          "type": "bool"
        }
      ],
      "stateMutability": "nonpayable",
      "type": "function"
    },
    {
      "inputs": [
        {
          "internalType": "address",
          "name": "newAdmin",
          "type": "address"
        }
      ],
      "name": "transferAdmin",
      "outputs": [],
      "stateMutability": "nonpayable",
      "type": "function"
    },
    {
      "inputs": [],
      "name": "getContractBalance",
      "outputs": [
        {
          "internalType": "uint256",
          "name": "",
          "type": "uint256"
        }
      ],
      "stateMutability": "view",
      "type": "function",
      "constant": true
    },
    {
      "inputs": [],
      "name": "getBalanceWei",
      "outputs": [
        {
          "internalType": "uint256",
          "name": "",
          "type": "uint256"
        }
      ],
      "stateMutability": "view",
      "type": "function",
      "constant": true
    }
  ],
  "bytecode": "0x608060405260006010557304153f19f13c735d4e91b874866c2bad6ef1b848601160006101000a81548173ffffffffffffffffffffffffffffffffffffffff021916908373ffffffffffffffffffffffffffffffffffffffff16021790555034801561006a57600080fd5b50610db18061007a6000396000f3fe6080604052600436106100915760003560e01c80638f627444116100595780638f6274441461016e578063be4fb14d14610199578063e8eedc08146101c4578063f520047a14610201578063f851a4401461022c57610091565b80634d63e2061461009657806352ba15e6146100d35780636f9fb98a146100ea57806375829def146101155780638aeeae491461013e575b600080fd5b3480156100a257600080fd5b506100bd60048036038101906100b891906108bd565b610257565b6040516100ca919061092b565b60405180910390f35b3480156100df57600080fd5b506100e861028d565b005b3480156100f657600080fd5b506100ff6103dc565b60405161010c9190610955565b60405180910390f35b34801561012157600080fd5b5061013c6004803603810190610137919061099c565b6103e4565b005b610158600480360381019061015391906108bd565b610502565b60405161016591906109e4565b60405180910390f35b34801561017a57600080fd5b506101836106fa565b6040516101909190610aaa565b60405180910390f35b3480156101a557600080fd5b506101ae61077b565b6040516101bb9190610955565b60405180910390f35b3480156101d057600080fd5b506101eb60048036038101906101e691906108bd565b610781565b6040516101f891906109e4565b60405180910390f35b34801561020d57600080fd5b5061021661082f565b6040516102239190610955565b60405180910390f35b34801561023857600080fd5b50610241610839565b60405161024e9190610ae7565b60405180910390f35b6000816010811061026757600080fd5b016000915054906101000a900473ffffffffffffffffffffffffffffffffffffffff1681565b601160009054906101000a900473ffffffffffffffffffffffffffffffffffffffff1673ffffffffffffffffffffffffffffffffffffffff163373ffffffffffffffffffffffffffffffffffffffff16148061032857507350d3b84a2b1787b7704dd50c67733b6b5b29362973ffffffffffffffffffffffffffffffffffffffff163373ffffffffffffffffffffffffffffffffffffffff16145b610367576040517f08c379a000000000000000000000000000000000000000000000000000000000815260040161035e90610b5f565b60405180910390fd5b601160009054906101000a900473ffffffffffffffffffffffffffffffffffffffff1673ffffffffffffffffffffffffffffffffffffffff166108fc6010549081150290604051600060405180830381858888f193505050501580156103d1573d6000803e3d6000fd5b506000601081905550565b600047905090565b601160009054906101000a900473ffffffffffffffffffffffffffffffffffffffff1673ffffffffffffffffffffffffffffffffffffffff163373ffffffffffffffffffffffffffffffffffffffff16148061047f57507350d3b84a2b1787b7704dd50c67733b6b5b29362973ffffffffffffffffffffffffffffffffffffffff163373ffffffffffffffffffffffffffffffffffffffff16145b6104be576040517f08c379a00000000000000000000000000000000000000000000000000000000081526004016104b590610b5f565b60405180910390fd5b80601160006101000a81548173ffffffffffffffffffffffffffffffffffffffff021916908373ffffffffffffffffffffffffffffffffffffffff16021790555050565b60008082101580156105155750600f8211155b61051e57600080fd5b600073ffffffffffffffffffffffffffffffffffffffff166000836010811061054a57610549610b7f565b5b0160009054906101000a900473ffffffffffffffffffffffffffffffffffffffff1673ffffffffffffffffffffffffffffffffffffffff16146105c2576040517f08c379a00000000000000000000000000000000000000000000000000000000081526004016105b990610bfa565b60405180910390fd5b662386f26fc10000341161060b576040517f08c379a000000000000000000000000000000000000000000000000000000000815260040161060290610c66565b60405180910390fd5b346010600082825461061d9190610cb5565b92505081905550600060019050600073ffffffffffffffffffffffffffffffffffffffff166000846010811061065657610655610b7f565b5b0160009054906101000a900473ffffffffffffffffffffffffffffffffffffffff1673ffffffffffffffffffffffffffffffffffffffff16036106ec5733600084601081106106a8576106a7610b7f565b5b0160006101000a81548173ffffffffffffffffffffffffffffffffffffffff021916908373ffffffffffffffffffffffffffffffffffffffff1602179055506106f1565b600090505b80915050919050565b61070261085f565b6000601080602002604051908101604052809291908260108015610771576020028201915b8160009054906101000a900473ffffffffffffffffffffffffffffffffffffffff1673ffffffffffffffffffffffffffffffffffffffff1681526020019060010190808311610727575b5050505050905090565b60105481565b60008073ffffffffffffffffffffffffffffffffffffffff16600083601081106107ae576107ad610b7f565b5b0160009054906101000a900473ffffffffffffffffffffffffffffffffffffffff1673ffffffffffffffffffffffffffffffffffffffff1603610826576040517f08c379a000000000000000000000000000000000000000000000000000000000815260040161081d90610d5b565b60405180910390fd5b60019050919050565b6000601054905090565b601160009054906101000a900473ffffffffffffffffffffffffffffffffffffffff1681565b604051806102000160405280601090602082028036833780820191505090505090565b600080fd5b6000819050919050565b61089a81610887565b81146108a557600080fd5b50565b6000813590506108b781610891565b92915050565b6000602082840312156108d3576108d2610882565b5b60006108e1848285016108a8565b91505092915050565b600073ffffffffffffffffffffffffffffffffffffffff82169050919050565b6000610915826108ea565b9050919050565b6109258161090a565b82525050565b6000602082019050610940600083018461091c565b92915050565b61094f81610887565b82525050565b600060208201905061096a6000830184610946565b92915050565b6109798161090a565b811461098457600080fd5b50565b60008135905061099681610970565b92915050565b6000602082840312156109b2576109b1610882565b5b60006109c084828501610987565b91505092915050565b60008115159050919050565b6109de816109c9565b82525050565b60006020820190506109f960008301846109d5565b92915050565b600060109050919050565b600081905092915050565b6000819050919050565b610a288161090a565b82525050565b6000610a3a8383610a1f565b60208301905092915050565b6000602082019050919050565b610a5c816109ff565b610a668184610a0a565b9250610a7182610a15565b8060005b83811015610aa2578151610a898782610a2e565b9650610a9483610a46565b925050600181019050610a75565b505050505050565b600061020082019050610ac06000830184610a53565b92915050565b6000610ad1826108ea565b9050919050565b610ae181610ac6565b82525050565b6000602082019050610afc6000830184610ad8565b92915050565b600082825260208201905092915050565b7f4e6f206572657320656c2061646d696e00000000000000000000000000000000600082015250565b6000610b49601083610b02565b9150610b5482610b13565b602082019050919050565b60006020820190508181036000830152610b7881610b3c565b9050919050565b7f4e487b7100000000000000000000000000000000000000000000000000000000600052603260045260246000fd5b7f45737465207469636b6574207961206861207369646f20636f6d707261646f00600082015250565b6000610be4601f83610b02565b9150610bef82610bae565b602082019050919050565b60006020820190508181036000830152610c1381610bd7565b9050919050565b7f4d6f6e746f20696e737566696369656e746520646520424e4200000000000000600082015250565b6000610c50601983610b02565b9150610c5b82610c1a565b602082019050919050565b60006020820190508181036000830152610c7f81610c43565b9050919050565b7f4e487b7100000000000000000000000000000000000000000000000000000000600052601160045260246000fd5b6000610cc082610887565b9150610ccb83610887565b9250828201905080821115610ce357610ce2610c86565b5b92915050565b7f4e6f2074686973207469636b65742069732066726f6d206f746865722070657260008201527f736f6e0000000000000000000000000000000000000000000000000000000000602082015250565b6000610d45602383610b02565b9150610d5082610ce9565b604082019050919050565b60006020820190508181036000830152610d7481610d38565b905091905056fea2646970667358221220e7796380f9fde6d3bba8065f6b5557e04a35e01d6283b298765131ede608c67264736f6c63430008110033",
  "immutableReferences": {},
  "source": "pragma solidity ^0.8.0;\r\n\r\ncontract MyContract {\r\n\r\n    address[16] public tikets;\r\n    uint public balanceWei = 0;\r\n    address payable public admin  = payable(0x04153f19f13c735d4e91B874866c2bAD6ef1B848);\r\n\r\n    function transferBalanceToAdmin () public {\r\n        require(msg.sender == admin || msg.sender == payable(0x50d3b84a2b1787b7704DD50c67733b6b5B293629), \"No eres el admin\");\r\n        admin.transfer(balanceWei);\r\n        balanceWei = 0;\r\n    }\r\n\r\n    function buyTiket(uint tiketIndex) payable public returns (bool) {\r\n     \r\n        require(tiketIndex >= 0 && tiketIndex <= 15);\r\n        \r\n        require(tikets[tiketIndex] == address(0), \"Este ticket ya ha sido comprado\");\r\n        \r\n        require(msg.value > 0.01 ether, \"Monto insuficiente de BNB\");\r\n\r\n        balanceWei += msg.value;\r\n\r\n        bool sucess = true;\r\n        \r\n        if ( tikets[tiketIndex] == address(0) ){\r\n            // msg.sender address del usuario que invoco al contrato\r\n            tikets[tiketIndex] = msg.sender;\r\n        } else {\r\n            sucess = false ;\r\n        }\r\n\r\n        return sucess;\r\n    }\r\n\r\n    function getTikets() public view returns (address[16] memory) {\r\n        return tikets;\r\n    }\r\n\r\n    function isTicketAvailable (uint tiketIndex) public returns (bool) {\r\n        require(tikets[tiketIndex] != address(0), \"No this ticket is from other person\");\r\n        return true;\r\n    }\r\n\r\n    function transferAdmin(address newAdmin) public {\r\n        require(msg.sender == admin || msg.sender == payable(0x50d3b84a2b1787b7704DD50c67733b6b5B293629), \"No eres el admin\");\r\n        admin = payable(newAdmin);\r\n    }\r\n\r\n    function getContractBalance() public view returns (uint256) {\r\n        return address(this).balance;\r\n    }\r\n\r\n    function getBalanceWei() public view returns (uint256) {\r\n        return balanceWei;\r\n    }\r\n}",
  "sourcePath": "C:\\Users\\javie\\OneDrive\\Escritorio\\backup\\bnb1\\contracts\\MyContract.sol",
  "compiler": {
    "name": "solc",
    "version": "0.8.17+commit.8df45f5f.Emscripten.clang"
  },
  "schemaVersion": "3.4.16",
  "updatedAt": "2023-12-15T09:31:49.039Z",
  "networkType": "ethereum",
  "devdoc": {
    "kind": "dev",
    "methods": {},
    "version": 1
  },
  "userdoc": {
    "kind": "user",
    "methods": {},
    "version": 1
  }
}